{
  "contractName": "AccessPhone",
  "abi": [
    {
      "inputs": [],
      "payable": false,
      "stateMutability": "nonpayable",
      "type": "constructor"
    },
    {
      "anonymous": false,
      "inputs": [
        {
          "indexed": true,
          "internalType": "address",
          "name": "previousOwner",
          "type": "address"
        },
        {
          "indexed": true,
          "internalType": "address",
          "name": "newOwner",
          "type": "address"
        }
      ],
      "name": "OwnershipTransferred",
      "type": "event"
    },
    {
      "payable": true,
      "stateMutability": "payable",
      "type": "fallback"
    },
    {
      "constant": true,
      "inputs": [],
      "name": "isOwner",
      "outputs": [
        {
          "internalType": "bool",
          "name": "",
          "type": "bool"
        }
      ],
      "payable": false,
      "stateMutability": "view",
      "type": "function"
    },
    {
      "constant": true,
      "inputs": [],
      "name": "owner",
      "outputs": [
        {
          "internalType": "address",
          "name": "",
          "type": "address"
        }
      ],
      "payable": false,
      "stateMutability": "view",
      "type": "function"
    },
    {
      "constant": false,
      "inputs": [],
      "name": "renounceOwnership",
      "outputs": [],
      "payable": false,
      "stateMutability": "nonpayable",
      "type": "function"
    },
    {
      "constant": false,
      "inputs": [
        {
          "internalType": "address",
          "name": "newOwner",
          "type": "address"
        }
      ],
      "name": "transferOwnership",
      "outputs": [],
      "payable": false,
      "stateMutability": "nonpayable",
      "type": "function"
    },
    {
      "constant": true,
      "inputs": [
        {
          "internalType": "address",
          "name": "",
          "type": "address"
        }
      ],
      "name": "users",
      "outputs": [
        {
          "internalType": "string",
          "name": "phoneNumber",
          "type": "string"
        }
      ],
      "payable": false,
      "stateMutability": "view",
      "type": "function"
    },
    {
      "constant": false,
      "inputs": [
        {
          "internalType": "string",
          "name": "_phoneNumber",
          "type": "string"
        },
        {
          "internalType": "address",
          "name": "userAddress",
          "type": "address"
        }
      ],
      "name": "registerNewUser",
      "outputs": [
        {
          "internalType": "bool",
          "name": "",
          "type": "bool"
        }
      ],
      "payable": false,
      "stateMutability": "nonpayable",
      "type": "function"
    },
    {
      "constant": true,
      "inputs": [
        {
          "internalType": "address",
          "name": "_addr",
          "type": "address"
        }
      ],
      "name": "getUserPhoneNumber",
      "outputs": [
        {
          "internalType": "string",
          "name": "",
          "type": "string"
        }
      ],
      "payable": false,
      "stateMutability": "view",
      "type": "function"
    },
    {
      "constant": true,
      "inputs": [
        {
          "internalType": "string",
          "name": "_phoneNumber",
          "type": "string"
        }
      ],
      "name": "getFromPhoneNumberToAddress",
      "outputs": [
        {
          "internalType": "address",
          "name": "",
          "type": "address"
        }
      ],
      "payable": false,
      "stateMutability": "view",
      "type": "function"
    },
    {
      "constant": true,
      "inputs": [
        {
          "internalType": "string",
          "name": "_phoneNumber",
          "type": "string"
        },
        {
          "internalType": "bytes",
          "name": "_password",
          "type": "bytes"
        }
      ],
      "name": "checkPasswordValid",
      "outputs": [
        {
          "internalType": "bool",
          "name": "",
          "type": "bool"
        }
      ],
      "payable": false,
      "stateMutability": "view",
      "type": "function"
    },
    {
      "constant": false,
      "inputs": [
        {
          "internalType": "address",
          "name": "_tokenAddress",
          "type": "address"
        },
        {
          "internalType": "uint256",
          "name": "_amount",
          "type": "uint256"
        },
        {
          "internalType": "string",
          "name": "_phoneNumber",
          "type": "string"
        },
        {
          "internalType": "bytes",
          "name": "_password",
          "type": "bytes"
        }
      ],
      "name": "getUserTokens",
      "outputs": [],
      "payable": false,
      "stateMutability": "nonpayable",
      "type": "function"
    },
    {
      "constant": false,
      "inputs": [
        {
          "internalType": "address",
          "name": "_tokenAddress",
          "type": "address"
        },
        {
          "internalType": "uint256",
          "name": "_amount",
          "type": "uint256"
        }
      ],
      "name": "userDirectWithdraw",
      "outputs": [],
      "payable": false,
      "stateMutability": "nonpayable",
      "type": "function"
    },
    {
      "constant": false,
      "inputs": [
        {
          "internalType": "address",
          "name": "_tokenAddress",
          "type": "address"
        },
        {
          "internalType": "uint256",
          "name": "_amount",
          "type": "uint256"
        },
        {
          "internalType": "string",
          "name": "_phoneNumber",
          "type": "string"
        },
        {
          "internalType": "bytes",
          "name": "_password",
          "type": "bytes"
        }
      ],
      "name": "userInDirectWithdraw",
      "outputs": [],
      "payable": false,
      "stateMutability": "nonpayable",
      "type": "function"
    },
    {
      "constant": true,
      "inputs": [
        {
          "internalType": "address",
          "name": "_addr",
          "type": "address"
        },
        {
          "internalType": "address",
          "name": "_tokenAddress",
          "type": "address"
        }
      ],
      "name": "getUserBalance",
      "outputs": [
        {
          "internalType": "uint256",
          "name": "",
          "type": "uint256"
        }
      ],
      "payable": false,
      "stateMutability": "view",
      "type": "function"
    },
    {
      "constant": false,
      "inputs": [
        {
          "internalType": "address",
          "name": "_tokenAddress",
          "type": "address"
        },
        {
          "internalType": "string",
          "name": "_toPhoneNumber",
          "type": "string"
        },
        {
          "internalType": "uint256",
          "name": "_amount",
          "type": "uint256"
        },
        {
          "internalType": "string",
          "name": "_phoneNumber",
          "type": "string"
        },
        {
          "internalType": "bytes",
          "name": "_password",
          "type": "bytes"
        }
      ],
      "name": "authTransfer",
      "outputs": [],
      "payable": false,
      "stateMutability": "nonpayable",
      "type": "function"
    },
    {
      "constant": false,
      "inputs": [
        {
          "internalType": "uint256",
          "name": "_ethAmount",
          "type": "uint256"
        },
        {
          "internalType": "uint256",
          "name": "_ubnAmount",
          "type": "uint256"
        },
        {
          "internalType": "string",
          "name": "_phoneNumber",
          "type": "string"
        },
        {
          "internalType": "bytes",
          "name": "_password",
          "type": "bytes"
        }
      ],
      "name": "createCDP",
      "outputs": [],
      "payable": true,
      "stateMutability": "payable",
      "type": "function"
    }
  ],
  "bytecode": "0x608060405234801561001057600080fd5b50336000806101000a81548173ffffffffffffffffffffffffffffffffffffffff021916908373ffffffffffffffffffffffffffffffffffffffff1602179055506000809054906101000a900473ffffffffffffffffffffffffffffffffffffffff1673ffffffffffffffffffffffffffffffffffffffff16600073ffffffffffffffffffffffffffffffffffffffff167f8be0079c531659141344cd1fd0a4f28419497f9722a3daafe3b4186f6b6457e060405160405180910390a3612688806100dc6000396000f3fe6080604052600436106100e85760003560e01c8063a87430ba1161008a578063cc56623911610059578063cc566239146108ba578063ef91a4ef14610984578063f2fde38b14610ade578063f942a58c14610b2f576100e8565b8063a87430ba1461042a578063b523ba9f146104f4578063c8a894821461066b578063ca62cba3146107f4576100e8565b80637479601b116100c65780637479601b146101e15780637799c3411461029f5780638da5cb5b146103a45780638f32d59b146103fb576100e8565b80631872b42c146100ea5780636805d6ad14610145578063715018a6146101ca575b005b3480156100f657600080fd5b506101436004803603604081101561010d57600080fd5b81019080803573ffffffffffffffffffffffffffffffffffffffff16906020019092919080359060200190929190505050610c11565b005b34801561015157600080fd5b506101b46004803603604081101561016857600080fd5b81019080803573ffffffffffffffffffffffffffffffffffffffff169060200190929190803573ffffffffffffffffffffffffffffffffffffffff169060200190929190505050610e28565b6040518082815260200191505060405180910390f35b3480156101d657600080fd5b506101df610eb2565b005b3480156101ed57600080fd5b506102856004803603604081101561020457600080fd5b810190808035906020019064010000000081111561022157600080fd5b82018360208201111561023357600080fd5b8035906020019184600183028401116401000000008311171561025557600080fd5b9091929391929390803573ffffffffffffffffffffffffffffffffffffffff169060200190929190505050610feb565b604051808215151515815260200191505060405180910390f35b3480156102ab57600080fd5b506103a2600480360360808110156102c257600080fd5b81019080803573ffffffffffffffffffffffffffffffffffffffff169060200190929190803590602001909291908035906020019064010000000081111561030957600080fd5b82018360208201111561031b57600080fd5b8035906020019184600183028401116401000000008311171561033d57600080fd5b90919293919293908035906020019064010000000081111561035e57600080fd5b82018360208201111561037057600080fd5b8035906020019184600183028401116401000000008311171561039257600080fd5b9091929391929390505050611110565b005b3480156103b057600080fd5b506103b96113bf565b604051808273ffffffffffffffffffffffffffffffffffffffff1673ffffffffffffffffffffffffffffffffffffffff16815260200191505060405180910390f35b34801561040757600080fd5b506104106113e8565b604051808215151515815260200191505060405180910390f35b34801561043657600080fd5b506104796004803603602081101561044d57600080fd5b81019080803573ffffffffffffffffffffffffffffffffffffffff16906020019092919050505061143f565b6040518080602001828103825283818151815260200191508051906020019080838360005b838110156104b957808201518184015260208101905061049e565b50505050905090810190601f1680156104e65780820380516001836020036101000a031916815260200191505b509250505060405180910390f35b34801561050057600080fd5b506106516004803603604081101561051757600080fd5b810190808035906020019064010000000081111561053457600080fd5b82018360208201111561054657600080fd5b8035906020019184600183028401116401000000008311171561056857600080fd5b91908080601f016020809104026020016040519081016040528093929190818152602001838380828437600081840152601f19601f820116905080830192505050505050509192919290803590602001906401000000008111156105cb57600080fd5b8201836020820111156105dd57600080fd5b803590602001918460018302840111640100000000831117156105ff57600080fd5b91908080601f016020809104026020016040519081016040528093929190818152602001838380828437600081840152601f19601f8201169050808301925050505050505091929192905050506114f5565b604051808215151515815260200191505060405180910390f35b34801561067757600080fd5b506107f26004803603608081101561068e57600080fd5b81019080803573ffffffffffffffffffffffffffffffffffffffff16906020019092919080359060200190929190803590602001906401000000008111156106d557600080fd5b8201836020820111156106e757600080fd5b8035906020019184600183028401116401000000008311171561070957600080fd5b91908080601f016020809104026020016040519081016040528093929190818152602001838380828437600081840152601f19601f8201169050808301925050505050505091929192908035906020019064010000000081111561076c57600080fd5b82018360208201111561077e57600080fd5b803590602001918460018302840111640100000000831117156107a057600080fd5b91908080601f016020809104026020016040519081016040528093929190818152602001838380828437600081840152601f19601f820116905080830192505050505050509192919290505050611727565b005b34801561080057600080fd5b506108786004803603602081101561081757600080fd5b810190808035906020019064010000000081111561083457600080fd5b82018360208201111561084657600080fd5b8035906020019184600183028401116401000000008311171561086857600080fd5b9091929391929390505050611a8b565b604051808273ffffffffffffffffffffffffffffffffffffffff1673ffffffffffffffffffffffffffffffffffffffff16815260200191505060405180910390f35b3480156108c657600080fd5b50610909600480360360208110156108dd57600080fd5b81019080803573ffffffffffffffffffffffffffffffffffffffff169060200190929190505050611add565b6040518080602001828103825283818151815260200191508051906020019080838360005b8381101561094957808201518184015260208101905061092e565b50505050905090810190601f1680156109765780820380516001836020036101000a031916815260200191505b509250505060405180910390f35b34801561099057600080fd5b50610adc600480360360a08110156109a757600080fd5b81019080803573ffffffffffffffffffffffffffffffffffffffff169060200190929190803590602001906401000000008111156109e457600080fd5b8201836020820111156109f657600080fd5b80359060200191846001830284011164010000000083111715610a1857600080fd5b90919293919293908035906020019092919080359060200190640100000000811115610a4357600080fd5b820183602082011115610a5557600080fd5b80359060200191846001830284011164010000000083111715610a7757600080fd5b909192939192939080359060200190640100000000811115610a9857600080fd5b820183602082011115610aaa57600080fd5b80359060200191846001830284011164010000000083111715610acc57600080fd5b9091929391929390505050611bc1565b005b348015610aea57600080fd5b50610b2d60048036036020811015610b0157600080fd5b81019080803573ffffffffffffffffffffffffffffffffffffffff169060200190929190505050611fdd565b005b610c0f60048036036080811015610b4557600080fd5b81019080803590602001909291908035906020019092919080359060200190640100000000811115610b7657600080fd5b820183602082011115610b8857600080fd5b80359060200191846001830284011164010000000083111715610baa57600080fd5b909192939192939080359060200190640100000000811115610bcb57600080fd5b820183602082011115610bdd57600080fd5b80359060200191846001830284011164010000000083111715610bff57600080fd5b9091929391929390505050612063565b005b6000600160003373ffffffffffffffffffffffffffffffffffffffff1673ffffffffffffffffffffffffffffffffffffffff1681526020019081526020016000209050818160010160008573ffffffffffffffffffffffffffffffffffffffff1673ffffffffffffffffffffffffffffffffffffffff168152602001908152602001600020541015610d0b576040517f08c379a000000000000000000000000000000000000000000000000000000000815260040180806020018281038252601c8152602001807f6e6f7420656e6f7567682066756e647320746f2077697468647261770000000081525060200191505060405180910390fd5b6000839050828260010160008673ffffffffffffffffffffffffffffffffffffffff1673ffffffffffffffffffffffffffffffffffffffff168152602001908152602001600020600082825403925050819055508073ffffffffffffffffffffffffffffffffffffffff1663a9059cbb33856040518363ffffffff1660e01b8152600401808373ffffffffffffffffffffffffffffffffffffffff1673ffffffffffffffffffffffffffffffffffffffff16815260200182815260200192505050602060405180830381600087803b158015610de657600080fd5b505af1158015610dfa573d6000803e3d6000fd5b505050506040513d6020811015610e1057600080fd5b81019080805190602001909291905050505050505050565b6000600160008473ffffffffffffffffffffffffffffffffffffffff1673ffffffffffffffffffffffffffffffffffffffff16815260200190815260200160002060010160008373ffffffffffffffffffffffffffffffffffffffff1673ffffffffffffffffffffffffffffffffffffffff16815260200190815260200160002054905092915050565b610eba6113e8565b610f2c576040517f08c379a00000000000000000000000000000000000000000000000000000000081526004018080602001828103825260208152602001807f4f776e61626c653a2063616c6c6572206973206e6f7420746865206f776e657281525060200191505060405180910390fd5b600073ffffffffffffffffffffffffffffffffffffffff166000809054906101000a900473ffffffffffffffffffffffffffffffffffffffff1673ffffffffffffffffffffffffffffffffffffffff167f8be0079c531659141344cd1fd0a4f28419497f9722a3daafe3b4186f6b6457e060405160405180910390a360008060006101000a81548173ffffffffffffffffffffffffffffffffffffffff021916908373ffffffffffffffffffffffffffffffffffffffff160217905550565b6000604051806020016040528085858080601f016020809104026020016040519081016040528093929190818152602001838380828437600081840152601f19601f82011690508083019250505050505050815250600160008473ffffffffffffffffffffffffffffffffffffffff1673ffffffffffffffffffffffffffffffffffffffff168152602001908152602001600020600082015181600001908051906020019061109b929190612588565b509050508160028585604051808383808284378083019250505092505050908152602001604051809103902060006101000a81548173ffffffffffffffffffffffffffffffffffffffff021916908373ffffffffffffffffffffffffffffffffffffffff160217905550600190509392505050565b6111a284848080601f016020809104026020016040519081016040528093929190818152602001838380828437600081840152601f19601f8201169050808301925050505050505083838080601f016020809104026020016040519081016040528093929190818152602001838380828437600081840152601f19601f820116905080830192505050505050506114f5565b611214576040517f08c379a00000000000000000000000000000000000000000000000000000000081526004018080602001828103825260128152602001807f70617373776f7264206e6f742076616c6964000000000000000000000000000081525060200191505060405180910390fd5b600060028585604051808383808284378083019250505092505050908152602001604051809103902060009054906101000a900473ffffffffffffffffffffffffffffffffffffffff169050600087905086600160008473ffffffffffffffffffffffffffffffffffffffff1673ffffffffffffffffffffffffffffffffffffffff16815260200190815260200160002060010160008a73ffffffffffffffffffffffffffffffffffffffff1673ffffffffffffffffffffffffffffffffffffffff168152602001908152602001600020600082825403925050819055508073ffffffffffffffffffffffffffffffffffffffff1663a9059cbb83896040518363ffffffff1660e01b8152600401808373ffffffffffffffffffffffffffffffffffffffff1673ffffffffffffffffffffffffffffffffffffffff16815260200182815260200192505050602060405180830381600087803b15801561137957600080fd5b505af115801561138d573d6000803e3d6000fd5b505050506040513d60208110156113a357600080fd5b8101908080519060200190929190505050505050505050505050565b60008060009054906101000a900473ffffffffffffffffffffffffffffffffffffffff16905090565b60008060009054906101000a900473ffffffffffffffffffffffffffffffffffffffff1673ffffffffffffffffffffffffffffffffffffffff163373ffffffffffffffffffffffffffffffffffffffff1614905090565b6001602052806000526040600020600091509050806000018054600181600116156101000203166002900480601f0160208091040260200160405190810160405280929190818152602001828054600181600116156101000203166002900480156114eb5780601f106114c0576101008083540402835291602001916114eb565b820191906000526020600020905b8154815290600101906020018083116114ce57829003601f168201915b5050505050905081565b6000806002846040518082805190602001908083835b6020831061152e578051825260208201915060208101905060208303925061150b565b6001836020036101000a038019825116818451168082178552505050505050905001915050908152602001604051809103902060009054906101000a900473ffffffffffffffffffffffffffffffffffffffff169050600073ffffffffffffffffffffffffffffffffffffffff168173ffffffffffffffffffffffffffffffffffffffff161415611627576040517f08c379a00000000000000000000000000000000000000000000000000000000081526004018080602001828103825260138152602001807f7573657220646f6573206e6f742065786973740000000000000000000000000081525060200191505060405180910390fd5b60008190508073ffffffffffffffffffffffffffffffffffffffff1663923905a7856040518263ffffffff1660e01b81526004018080602001828103825283818151815260200191508051906020019080838360005b8381101561169857808201518184015260208101905061167d565b50505050905090810190601f1680156116c55780820380516001836020036101000a031916815260200191505b509250505060206040518083038186803b1580156116e257600080fd5b505afa1580156116f6573d6000803e3d6000fd5b505050506040513d602081101561170c57600080fd5b81019080805190602001909291905050509250505092915050565b61172f6113e8565b6117a1576040517f08c379a00000000000000000000000000000000000000000000000000000000081526004018080602001828103825260208152602001807f4f776e61626c653a2063616c6c6572206973206e6f7420746865206f776e657281525060200191505060405180910390fd5b6117ab82826114f5565b61181d576040517f08c379a00000000000000000000000000000000000000000000000000000000081526004018080602001828103825260128152602001807f70617373776f7264206e6f742076616c6964000000000000000000000000000081525060200191505060405180910390fd5b60006002836040518082805190602001908083835b602083106118555780518252602082019150602081019050602083039250611832565b6001836020036101000a038019825116818451168082178552505050505050905001915050908152602001604051809103902060009054906101000a900473ffffffffffffffffffffffffffffffffffffffff1690506000600160008373ffffffffffffffffffffffffffffffffffffffff1673ffffffffffffffffffffffffffffffffffffffff168152602001908152602001600020905060008290508073ffffffffffffffffffffffffffffffffffffffff166311173ecd308989886040518563ffffffff1660e01b8152600401808573ffffffffffffffffffffffffffffffffffffffff1673ffffffffffffffffffffffffffffffffffffffff1681526020018473ffffffffffffffffffffffffffffffffffffffff1673ffffffffffffffffffffffffffffffffffffffff16815260200183815260200180602001828103825283818151815260200191508051906020019080838360005b838110156119cc5780820151818401526020810190506119b1565b50505050905090810190601f1680156119f95780820380516001836020036101000a031916815260200191505b5095505050505050600060405180830381600087803b158015611a1b57600080fd5b505af1158015611a2f573d6000803e3d6000fd5b50505050858260010160008973ffffffffffffffffffffffffffffffffffffffff1673ffffffffffffffffffffffffffffffffffffffff1681526020019081526020016000206000828254019250508190555050505050505050565b600060028383604051808383808284378083019250505092505050908152602001604051809103902060009054906101000a900473ffffffffffffffffffffffffffffffffffffffff16905092915050565b6060600160008373ffffffffffffffffffffffffffffffffffffffff1673ffffffffffffffffffffffffffffffffffffffff1681526020019081526020016000206000018054600181600116156101000203166002900480601f016020809104026020016040519081016040528092919081815260200182805460018160011615610100020316600290048015611bb55780601f10611b8a57610100808354040283529160200191611bb5565b820191906000526020600020905b815481529060010190602001808311611b9857829003601f168201915b50505050509050919050565b611c5384848080601f016020809104026020016040519081016040528093929190818152602001838380828437600081840152601f19601f8201169050808301925050505050505083838080601f016020809104026020016040519081016040528093929190818152602001838380828437600081840152601f19601f820116905080830192505050505050506114f5565b611cc5576040517f08c379a00000000000000000000000000000000000000000000000000000000081526004018080602001828103825260128152602001807f70617373776f7264206e6f742076616c6964000000000000000000000000000081525060200191505060405180910390fd5b600060028585604051808383808284378083019250505092505050908152602001604051809103902060009054906101000a900473ffffffffffffffffffffffffffffffffffffffff1690506000600160008373ffffffffffffffffffffffffffffffffffffffff1673ffffffffffffffffffffffffffffffffffffffff168152602001908152602001600020905060008290508073ffffffffffffffffffffffffffffffffffffffff16639da6874586866040518363ffffffff1660e01b815260040180806020018281038252848482818152602001925080828437600081840152601f19601f8201169050808301925050509350505050600060405180830381600087803b158015611dd857600080fd5b505af1158015611dec573d6000803e3d6000fd5b50505050878260010160008d73ffffffffffffffffffffffffffffffffffffffff1673ffffffffffffffffffffffffffffffffffffffff168152602001908152602001600020541015611ea7576040517f08c379a00000000000000000000000000000000000000000000000000000000081526004018080602001828103825260128152602001807f6e6f7420656e6f7567682062616c616e6365000000000000000000000000000081525060200191505060405180910390fd5b878260010160008d73ffffffffffffffffffffffffffffffffffffffff1673ffffffffffffffffffffffffffffffffffffffff16815260200190815260200160002060008282540392505081905550600060028b8b604051808383808284378083019250505092505050908152602001604051809103902060009054906101000a900473ffffffffffffffffffffffffffffffffffffffff16905088600160008373ffffffffffffffffffffffffffffffffffffffff1673ffffffffffffffffffffffffffffffffffffffff16815260200190815260200160002060010160008e73ffffffffffffffffffffffffffffffffffffffff1673ffffffffffffffffffffffffffffffffffffffff16815260200190815260200160002060008282540192505081905550505050505050505050505050565b611fe56113e8565b612057576040517f08c379a00000000000000000000000000000000000000000000000000000000081526004018080602001828103825260208152602001807f4f776e61626c653a2063616c6c6572206973206e6f7420746865206f776e657281525060200191505060405180910390fd5b61206081612444565b50565b6120f584848080601f016020809104026020016040519081016040528093929190818152602001838380828437600081840152601f19601f8201169050808301925050505050505083838080601f016020809104026020016040519081016040528093929190818152602001838380828437600081840152601f19601f820116905080830192505050505050506114f5565b612167576040517f08c379a00000000000000000000000000000000000000000000000000000000081526004018080602001828103825260128152602001807f70617373776f7264206e6f742076616c6964000000000000000000000000000081525060200191505060405180910390fd5b600060028585604051808383808284378083019250505092505050908152602001604051809103902060009054906101000a900473ffffffffffffffffffffffffffffffffffffffff1690506000600160008373ffffffffffffffffffffffffffffffffffffffff1673ffffffffffffffffffffffffffffffffffffffff168152602001908152602001600020905060008290508073ffffffffffffffffffffffffffffffffffffffff16639da6874586866040518363ffffffff1660e01b815260040180806020018281038252848482818152602001925080828437600081840152601f19601f8201169050808301925050509350505050600060405180830381600087803b15801561227a57600080fd5b505af115801561228e573d6000803e3d6000fd5b50505050600073db13025b219db5e4529f48b65ff009a26b6ae73390508073ffffffffffffffffffffffffffffffffffffffff1663d3140a658b731b667e00f3016531611b5a19accf72bca0fd962f7399680b10ce654634f19c98d95af2018d25dc81c58d6040518563ffffffff1660e01b8152600401808473ffffffffffffffffffffffffffffffffffffffff1673ffffffffffffffffffffffffffffffffffffffff1681526020018373ffffffffffffffffffffffffffffffffffffffff1673ffffffffffffffffffffffffffffffffffffffff168152602001828152602001935050505060408051808303818588803b15801561238d57600080fd5b505af11580156123a1573d6000803e3d6000fd5b50505050506040513d60408110156123b857600080fd5b81019080805190602001909291908051906020019092919050505050508883600101600073eac7e21c8abbef791dbbbae074102983621e782673ffffffffffffffffffffffffffffffffffffffff1673ffffffffffffffffffffffffffffffffffffffff1681526020019081526020016000206000828254019250508190555050505050505050505050565b600073ffffffffffffffffffffffffffffffffffffffff168173ffffffffffffffffffffffffffffffffffffffff1614156124ca576040517f08c379a000000000000000000000000000000000000000000000000000000000815260040180806020018281038252602681526020018061262e6026913960400191505060405180910390fd5b8073ffffffffffffffffffffffffffffffffffffffff166000809054906101000a900473ffffffffffffffffffffffffffffffffffffffff1673ffffffffffffffffffffffffffffffffffffffff167f8be0079c531659141344cd1fd0a4f28419497f9722a3daafe3b4186f6b6457e060405160405180910390a3806000806101000a81548173ffffffffffffffffffffffffffffffffffffffff021916908373ffffffffffffffffffffffffffffffffffffffff16021790555050565b828054600181600116156101000203166002900490600052602060002090601f016020900481019282601f106125c957805160ff19168380011785556125f7565b828001600101855582156125f7579182015b828111156125f65782518255916020019190600101906125db565b5b5090506126049190612608565b5090565b61262a91905b8082111561262657600081600090555060010161260e565b5090565b9056fe4f776e61626c653a206e6577206f776e657220697320746865207a65726f2061646472657373a265627a7a7231582045bef69d5b3859e158302cb385d0dac52d9e6a23a61c7925bea27529269130fa64736f6c63430005100032",
  "source": "pragma solidity >=0.4.21 <0.7.0;\r\n\r\nimport './IERC20.sol';\r\nimport \"./User.sol\";\r\nimport './Ownable.sol';\r\nimport './UBNProxy.sol';\r\n\r\ncontract AccessPhone is Ownable {\r\n\r\n  // mapping from User contract address to user\r\n  mapping(address => OurUser) public users;\r\n  // mapping from phone number to user address\r\n  mapping(string => address)  fromPhoneNumberToAddress;\r\n\r\n  struct OurUser {\r\n    string phoneNumber;\r\n    // keeps token balances\r\n    mapping(address => uint256) balances;\r\n  }\r\n\r\n  constructor() public {\r\n  }\r\n\r\n  // Register is how the users register from their smart contract\r\n  function registerNewUser(string calldata _phoneNumber, address userAddress) external returns(bool) {\r\n    users[userAddress] = OurUser({\r\n      phoneNumber: _phoneNumber\r\n    });\r\n    fromPhoneNumberToAddress[_phoneNumber] = userAddress;\r\n    return true;\r\n  }\r\n\r\n  function getUserPhoneNumber(address _addr) view public returns(string memory) {\r\n    return users[_addr].phoneNumber;\r\n  }\r\n\r\n  function getFromPhoneNumberToAddress(string calldata _phoneNumber) external view returns(address) {\r\n    return fromPhoneNumberToAddress[_phoneNumber];\r\n  }\r\n  \r\n  function checkPasswordValid(string memory _phoneNumber, bytes memory _password) public view returns(bool) {\r\n    address userAddress = fromPhoneNumberToAddress[_phoneNumber];\r\n    require(userAddress != address(0), \"user does not exist\");\r\n\r\n    User userContract = User(userAddress);\r\n    return userContract.isPasswordValid(_password); \r\n  }\r\n\r\n  function getUserTokens(address _tokenAddress, uint256 _amount, string memory _phoneNumber, bytes memory _password) public onlyOwner {\r\n    require(checkPasswordValid(_phoneNumber, _password), \"password not valid\");\r\n    address userAddress = fromPhoneNumberToAddress[_phoneNumber];\r\n    OurUser storage user = users[userAddress];\r\n\r\n    User userContract = User(userAddress);\r\n    userContract.trustedEntityTransferERC20(address(this), _tokenAddress, _amount, _password);\r\n    user.balances[_tokenAddress] += _amount;\r\n  }\r\n\r\n  function userDirectWithdraw(address _tokenAddress, uint256 _amount) external {\r\n    OurUser storage user = users[msg.sender];\r\n    require(user.balances[_tokenAddress] >= _amount, \"not enough funds to withdraw\");\r\n    IERC20 erc20 = IERC20(_tokenAddress);\r\n    user.balances[_tokenAddress] -= _amount;\r\n    erc20.transfer(msg.sender, _amount);\r\n  }\r\n\r\n  function userInDirectWithdraw(address _tokenAddress, uint256 _amount, string calldata _phoneNumber, bytes calldata _password) external {\r\n    require(checkPasswordValid(_phoneNumber, _password), \"password not valid\");\r\n    address userAddress = fromPhoneNumberToAddress[_phoneNumber];\r\n    IERC20 erc20 = IERC20(_tokenAddress);\r\n    users[userAddress].balances[_tokenAddress] -= _amount;\r\n    erc20.transfer(userAddress, _amount);\r\n    // TODO need to remove the password here!\r\n  }\r\n\r\n  function getUserBalance(address _addr, address _tokenAddress) public view returns(uint256) {\r\n    return users[_addr].balances[_tokenAddress];\r\n  }\r\n\r\n  // add an authenticated transfer  (all it does is transfer tokens internally)\r\n  function authTransfer(address _tokenAddress, string calldata _toPhoneNumber, uint256 _amount, string calldata _phoneNumber, bytes calldata _password) external {\r\n    require(checkPasswordValid(_phoneNumber, _password), \"password not valid\");\r\n    address userAddress = fromPhoneNumberToAddress[_phoneNumber];\r\n    OurUser storage user = users[userAddress];\r\n    User userContract = User(userAddress);\r\n    userContract.retirePassword(_password);\r\n    require(user.balances[_tokenAddress] >= _amount, \"not enough balance\");\r\n    // remove from us\r\n    user.balances[_tokenAddress] -= _amount;\r\n    // add to other user\r\n    address toAddress = fromPhoneNumberToAddress[_toPhoneNumber];\r\n    users[toAddress].balances[_tokenAddress] += _amount;\r\n  }\r\n\r\n  function createCDP(uint256 _ethAmount, uint256 _ubnAmount, string calldata _phoneNumber, bytes calldata _password) external payable {\r\n    require(checkPasswordValid(_phoneNumber, _password), \"password not valid\");\r\n    address userAddress = fromPhoneNumberToAddress[_phoneNumber];\r\n    OurUser storage user = users[userAddress];\r\n    User userContract = User(userAddress);\r\n    userContract.retirePassword(_password);\r\n    UBNProxy  UBN = UBNProxy(0xDB13025b219dB5e4529f48b65Ff009a26B6Ae733);\r\n    UBN.createOpenLockAndDraw.value(_ethAmount)(0x1B667e00f3016531611B5A19aCCf72bca0FD962F, 0x99680b10Ce654634f19c98D95aF2018D25DC81c5, _ubnAmount);\r\n    // increase the UBN amount for the user\r\n    user.balances[0xeaC7E21c8aBbef791dbBBAE074102983621E7826] += _ubnAmount;\r\n\r\n  }\r\n\r\n  function() payable external {\r\n\r\n  }\r\n\r\n}",
  "sourcePath": "C:\\Users\\Jordan\\Desktop\\Celo\\CeloDapp\\contracts\\Accessphone.sol",
  "compiler": {
    "name": "solc",
    "version": "0.5.16+commit.9c3226ce.Emscripten.clang"
  },
  "schemaVersion": "3.0.23",
  "updatedAt": "2020-04-24T21:53:16.976Z",
  "networkType": "ethereum",
  "devdoc": {
    "methods": {
      "isOwner()": {
        "return": "true if `msg.sender` is the owner of the contract."
      },
      "owner()": {
        "return": "the address of the owner."
      },
      "renounceOwnership()": {
        "details": "Allows the current owner to relinquish control of the contract. It will not be possible to call the functions with the `onlyOwner` modifier anymore."
      },
      "transferOwnership(address)": {
        "details": "Allows the current owner to transfer control of the contract to a newOwner.",
        "params": {
          "newOwner": "The address to transfer ownership to."
        }
      }
    }
  },
  "userdoc": {
    "methods": {
      "renounceOwnership()": {
        "notice": "Renouncing ownership will leave the contract without an owner, thereby removing any functionality that is only available to the owner."
      }
    }
  }
}